{
  "_format": "hh-sol-artifact-1",
  "contractName": "DegenDealsERC721",
  "sourceName": "src/DegenDealsERC721.sol",
  "abi": [
    {
      "inputs": [
        {
          "internalType": "address",
          "name": "_dedeal",
          "type": "address"
        },
        {
          "internalType": "address",
          "name": "_dedealsERC6551Registry",
          "type": "address"
        },
        {
          "internalType": "address",
          "name": "_platformWallet",
          "type": "address"
        },
        {
          "internalType": "address",
          "name": "_legalWallet",
          "type": "address"
        },
        {
          "internalType": "address",
          "name": "_kycWallet",
          "type": "address"
        }
      ],
      "stateMutability": "nonpayable",
      "type": "constructor"
    },
    {
      "inputs": [],
      "name": "AccessControlBadConfirmation",
      "type": "error"
    },
    {
      "inputs": [
        {
          "internalType": "address",
          "name": "account",
          "type": "address"
        },
        {
          "internalType": "bytes32",
          "name": "neededRole",
          "type": "bytes32"
        }
      ],
      "name": "AccessControlUnauthorizedAccount",
      "type": "error"
    },
    {
      "inputs": [
        {
          "internalType": "address",
          "name": "target",
          "type": "address"
        }
      ],
      "name": "AddressEmptyCode",
      "type": "error"
    },
    {
      "inputs": [
        {
          "internalType": "address",
          "name": "account",
          "type": "address"
        }
      ],
      "name": "AddressInsufficientBalance",
      "type": "error"
    },
    {
      "inputs": [],
      "name": "DealAccountDealFailed",
      "type": "error"
    },
    {
      "inputs": [],
      "name": "DealAccountFundFailed",
      "type": "error"
    },
    {
      "inputs": [],
      "name": "DealAccountPaymentFailed",
      "type": "error"
    },
    {
      "inputs": [
        {
          "internalType": "uint256",
          "name": "dealId",
          "type": "uint256"
        },
        {
          "internalType": "address",
          "name": "account",
          "type": "address"
        }
      ],
      "name": "DealAccountTransferObligeeFailed",
      "type": "error"
    },
    {
      "inputs": [
        {
          "internalType": "uint256",
          "name": "dealId",
          "type": "uint256"
        },
        {
          "internalType": "address",
          "name": "account",
          "type": "address"
        }
      ],
      "name": "DealAccountTransferObligorFailed",
      "type": "error"
    },
    {
      "inputs": [],
      "name": "DealUnderArbitrage",
      "type": "error"
    },
    {
      "inputs": [
        {
          "internalType": "address",
          "name": "sender",
          "type": "address"
        },
        {
          "internalType": "uint256",
          "name": "tokenId",
          "type": "uint256"
        },
        {
          "internalType": "address",
          "name": "owner",
          "type": "address"
        }
      ],
      "name": "ERC721IncorrectOwner",
      "type": "error"
    },
    {
      "inputs": [
        {
          "internalType": "address",
          "name": "operator",
          "type": "address"
        },
        {
          "internalType": "uint256",
          "name": "tokenId",
          "type": "uint256"
        }
      ],
      "name": "ERC721InsufficientApproval",
      "type": "error"
    },
    {
      "inputs": [
        {
          "internalType": "address",
          "name": "approver",
          "type": "address"
        }
      ],
      "name": "ERC721InvalidApprover",
      "type": "error"
    },
    {
      "inputs": [
        {
          "internalType": "address",
          "name": "operator",
          "type": "address"
        }
      ],
      "name": "ERC721InvalidOperator",
      "type": "error"
    },
    {
      "inputs": [
        {
          "internalType": "address",
          "name": "owner",
          "type": "address"
        }
      ],
      "name": "ERC721InvalidOwner",
      "type": "error"
    },
    {
      "inputs": [
        {
          "internalType": "address",
          "name": "receiver",
          "type": "address"
        }
      ],
      "name": "ERC721InvalidReceiver",
      "type": "error"
    },
    {
      "inputs": [
        {
          "internalType": "address",
          "name": "sender",
          "type": "address"
        }
      ],
      "name": "ERC721InvalidSender",
      "type": "error"
    },
    {
      "inputs": [
        {
          "internalType": "uint256",
          "name": "tokenId",
          "type": "uint256"
        }
      ],
      "name": "ERC721NonexistentToken",
      "type": "error"
    },
    {
      "inputs": [],
      "name": "FailedInnerCall",
      "type": "error"
    },
    {
      "inputs": [],
      "name": "ForbiddenToChangeObligee",
      "type": "error"
    },
    {
      "inputs": [],
      "name": "InvalidInitialization",
      "type": "error"
    },
    {
      "inputs": [
        {
          "internalType": "uint256",
          "name": "dealId",
          "type": "uint256"
        },
        {
          "internalType": "address",
          "name": "sender",
          "type": "address"
        }
      ],
      "name": "NotDealSubjectOnDeal",
      "type": "error"
    },
    {
      "inputs": [
        {
          "internalType": "uint256",
          "name": "dealId",
          "type": "uint256"
        },
        {
          "internalType": "address",
          "name": "sender",
          "type": "address"
        }
      ],
      "name": "NotDealSubjectOnPay",
      "type": "error"
    },
    {
      "inputs": [
        {
          "internalType": "uint256",
          "name": "dealId",
          "type": "uint256"
        },
        {
          "internalType": "address",
          "name": "sender",
          "type": "address"
        }
      ],
      "name": "NotDealSubjectOnTransfer",
      "type": "error"
    },
    {
      "inputs": [],
      "name": "NotInitializing",
      "type": "error"
    },
    {
      "inputs": [
        {
          "internalType": "uint256",
          "name": "dealId",
          "type": "uint256"
        }
      ],
      "name": "NotObligeeOfDeal",
      "type": "error"
    },
    {
      "inputs": [
        {
          "internalType": "uint256",
          "name": "dealId",
          "type": "uint256"
        }
      ],
      "name": "NotObligeeReceiver",
      "type": "error"
    },
    {
      "inputs": [
        {
          "internalType": "uint256",
          "name": "dealId",
          "type": "uint256"
        }
      ],
      "name": "NotObligorOfDeal",
      "type": "error"
    },
    {
      "inputs": [
        {
          "internalType": "address",
          "name": "paymentToken",
          "type": "address"
        }
      ],
      "name": "NotPaymentToken",
      "type": "error"
    },
    {
      "inputs": [
        {
          "internalType": "address",
          "name": "token",
          "type": "address"
        }
      ],
      "name": "SafeERC20FailedOperation",
      "type": "error"
    },
    {
      "anonymous": false,
      "inputs": [
        {
          "indexed": true,
          "internalType": "address",
          "name": "owner",
          "type": "address"
        },
        {
          "indexed": true,
          "internalType": "address",
          "name": "approved",
          "type": "address"
        },
        {
          "indexed": true,
          "internalType": "uint256",
          "name": "tokenId",
          "type": "uint256"
        }
      ],
      "name": "Approval",
      "type": "event"
    },
    {
      "anonymous": false,
      "inputs": [
        {
          "indexed": true,
          "internalType": "address",
          "name": "owner",
          "type": "address"
        },
        {
          "indexed": true,
          "internalType": "address",
          "name": "operator",
          "type": "address"
        },
        {
          "indexed": false,
          "internalType": "bool",
          "name": "approved",
          "type": "bool"
        }
      ],
      "name": "ApprovalForAll",
      "type": "event"
    },
    {
      "anonymous": false,
      "inputs": [
        {
          "indexed": false,
          "internalType": "uint256",
          "name": "dealId",
          "type": "uint256"
        },
        {
          "indexed": false,
          "internalType": "address",
          "name": "subject",
          "type": "address"
        }
      ],
      "name": "Arbitrage",
      "type": "event"
    },
    {
      "anonymous": false,
      "inputs": [
        {
          "indexed": false,
          "internalType": "uint256",
          "name": "_fromTokenId",
          "type": "uint256"
        },
        {
          "indexed": false,
          "internalType": "uint256",
          "name": "_toTokenId",
          "type": "uint256"
        }
      ],
      "name": "BatchMetadataUpdate",
      "type": "event"
    },
    {
      "anonymous": false,
      "inputs": [
        {
          "indexed": false,
          "internalType": "uint256",
          "name": "dealId",
          "type": "uint256"
        }
      ],
      "name": "Deal",
      "type": "event"
    },
    {
      "anonymous": false,
      "inputs": [
        {
          "indexed": false,
          "internalType": "uint256",
          "name": "dealId",
          "type": "uint256"
        },
        {
          "indexed": false,
          "internalType": "uint256",
          "name": "dealDiscountPercent",
          "type": "uint256"
        }
      ],
      "name": "Designate",
      "type": "event"
    },
    {
      "anonymous": false,
      "inputs": [
        {
          "indexed": false,
          "internalType": "uint256",
          "name": "dealId",
          "type": "uint256"
        },
        {
          "indexed": false,
          "internalType": "address",
          "name": "newObligor",
          "type": "address"
        }
      ],
      "name": "Fund",
      "type": "event"
    },
    {
      "anonymous": false,
      "inputs": [
        {
          "indexed": false,
          "internalType": "uint64",
          "name": "version",
          "type": "uint64"
        }
      ],
      "name": "Initialized",
      "type": "event"
    },
    {
      "anonymous": false,
      "inputs": [
        {
          "indexed": false,
          "internalType": "uint256",
          "name": "_tokenId",
          "type": "uint256"
        }
      ],
      "name": "MetadataUpdate",
      "type": "event"
    },
    {
      "anonymous": false,
      "inputs": [
        {
          "indexed": false,
          "internalType": "uint256",
          "name": "dealId",
          "type": "uint256"
        },
        {
          "indexed": false,
          "internalType": "address",
          "name": "obligor",
          "type": "address"
        },
        {
          "indexed": false,
          "internalType": "address",
          "name": "obligee",
          "type": "address"
        },
        {
          "indexed": false,
          "internalType": "address",
          "name": "dealAccount",
          "type": "address"
        },
        {
          "indexed": false,
          "internalType": "string",
          "name": "offerHash",
          "type": "string"
        },
        {
          "indexed": false,
          "internalType": "address",
          "name": "paymentToken",
          "type": "address"
        },
        {
          "indexed": false,
          "internalType": "uint256",
          "name": "paymentAmount",
          "type": "uint256"
        },
        {
          "indexed": false,
          "internalType": "uint256",
          "name": "period",
          "type": "uint256"
        }
      ],
      "name": "Mint",
      "type": "event"
    },
    {
      "anonymous": false,
      "inputs": [
        {
          "indexed": false,
          "internalType": "uint256",
          "name": "dealId",
          "type": "uint256"
        },
        {
          "indexed": false,
          "internalType": "address",
          "name": "obligee",
          "type": "address"
        },
        {
          "indexed": false,
          "internalType": "address",
          "name": "token",
          "type": "address"
        },
        {
          "indexed": false,
          "internalType": "uint256",
          "name": "paymentAmount",
          "type": "uint256"
        }
      ],
      "name": "Pay",
      "type": "event"
    },
    {
      "anonymous": false,
      "inputs": [
        {
          "indexed": false,
          "internalType": "uint256",
          "name": "dealId",
          "type": "uint256"
        }
      ],
      "name": "Resolve",
      "type": "event"
    },
    {
      "anonymous": false,
      "inputs": [
        {
          "indexed": true,
          "internalType": "bytes32",
          "name": "role",
          "type": "bytes32"
        },
        {
          "indexed": true,
          "internalType": "bytes32",
          "name": "previousAdminRole",
          "type": "bytes32"
        },
        {
          "indexed": true,
          "internalType": "bytes32",
          "name": "newAdminRole",
          "type": "bytes32"
        }
      ],
      "name": "RoleAdminChanged",
      "type": "event"
    },
    {
      "anonymous": false,
      "inputs": [
        {
          "indexed": true,
          "internalType": "bytes32",
          "name": "role",
          "type": "bytes32"
        },
        {
          "indexed": true,
          "internalType": "address",
          "name": "account",
          "type": "address"
        },
        {
          "indexed": true,
          "internalType": "address",
          "name": "sender",
          "type": "address"
        }
      ],
      "name": "RoleGranted",
      "type": "event"
    },
    {
      "anonymous": false,
      "inputs": [
        {
          "indexed": true,
          "internalType": "bytes32",
          "name": "role",
          "type": "bytes32"
        },
        {
          "indexed": true,
          "internalType": "address",
          "name": "account",
          "type": "address"
        },
        {
          "indexed": true,
          "internalType": "address",
          "name": "sender",
          "type": "address"
        }
      ],
      "name": "RoleRevoked",
      "type": "event"
    },
    {
      "anonymous": false,
      "inputs": [
        {
          "indexed": false,
          "internalType": "uint256",
          "name": "dealId",
          "type": "uint256"
        }
      ],
      "name": "Split",
      "type": "event"
    },
    {
      "anonymous": false,
      "inputs": [
        {
          "indexed": true,
          "internalType": "address",
          "name": "from",
          "type": "address"
        },
        {
          "indexed": true,
          "internalType": "address",
          "name": "to",
          "type": "address"
        },
        {
          "indexed": true,
          "internalType": "uint256",
          "name": "tokenId",
          "type": "uint256"
        }
      ],
      "name": "Transfer",
      "type": "event"
    },
    {
      "anonymous": false,
      "inputs": [
        {
          "indexed": false,
          "internalType": "uint256",
          "name": "dealId",
          "type": "uint256"
        },
        {
          "indexed": false,
          "internalType": "address",
          "name": "prevObligee",
          "type": "address"
        },
        {
          "indexed": false,
          "internalType": "address",
          "name": "newObligor",
          "type": "address"
        }
      ],
      "name": "TransferObligee",
      "type": "event"
    },
    {
      "anonymous": false,
      "inputs": [
        {
          "indexed": false,
          "internalType": "uint256",
          "name": "dealId",
          "type": "uint256"
        },
        {
          "indexed": false,
          "internalType": "address",
          "name": "prevObligor",
          "type": "address"
        },
        {
          "indexed": false,
          "internalType": "address",
          "name": "newObligor",
          "type": "address"
        }
      ],
      "name": "TransferObligor",
      "type": "event"
    },
    {
      "inputs": [],
      "name": "ARBITRATOR_ROLE",
      "outputs": [
        {
          "internalType": "bytes32",
          "name": "",
          "type": "bytes32"
        }
      ],
      "stateMutability": "view",
      "type": "function"
    },
    {
      "inputs": [],
      "name": "DEFAULT_ADMIN_ROLE",
      "outputs": [
        {
          "internalType": "bytes32",
          "name": "",
          "type": "bytes32"
        }
      ],
      "stateMutability": "view",
      "type": "function"
    },
    {
      "inputs": [],
      "name": "DEGEN_BOSS_ROLE",
      "outputs": [
        {
          "internalType": "bytes32",
          "name": "",
          "type": "bytes32"
        }
      ],
      "stateMutability": "view",
      "type": "function"
    },
    {
      "inputs": [],
      "name": "MEMBER_ROLE",
      "outputs": [
        {
          "internalType": "bytes32",
          "name": "",
          "type": "bytes32"
        }
      ],
      "stateMutability": "view",
      "type": "function"
    },
    {
      "inputs": [],
      "name": "PERCENT_DENOMINATOR",
      "outputs": [
        {
          "internalType": "uint256",
          "name": "",
          "type": "uint256"
        }
      ],
      "stateMutability": "view",
      "type": "function"
    },
    {
      "inputs": [
        {
          "internalType": "contract IERC20",
          "name": "paymentToken",
          "type": "address"
        },
        {
          "internalType": "uint256",
          "name": "paymentAmount",
          "type": "uint256"
        }
      ],
      "name": "_chargeAndDistributeMintFee",
      "outputs": [],
      "stateMutability": "nonpayable",
      "type": "function"
    },
    {
      "inputs": [
        {
          "internalType": "uint256",
          "name": "_legalFeeShare",
          "type": "uint256"
        },
        {
          "internalType": "uint256",
          "name": "_platformFeeShare",
          "type": "uint256"
        }
      ],
      "name": "adjustShares",
      "outputs": [],
      "stateMutability": "nonpayable",
      "type": "function"
    },
    {
      "inputs": [
        {
          "internalType": "address",
          "name": "to",
          "type": "address"
        },
        {
          "internalType": "uint256",
          "name": "tokenId",
          "type": "uint256"
        }
      ],
      "name": "approve",
      "outputs": [],
      "stateMutability": "nonpayable",
      "type": "function"
    },
    {
      "inputs": [
        {
          "internalType": "uint256",
          "name": "dealId",
          "type": "uint256"
        }
      ],
      "name": "arbitrage",
      "outputs": [],
      "stateMutability": "nonpayable",
      "type": "function"
    },
    {
      "inputs": [
        {
          "internalType": "address",
          "name": "owner",
          "type": "address"
        }
      ],
      "name": "balanceOf",
      "outputs": [
        {
          "internalType": "uint256",
          "name": "",
          "type": "uint256"
        }
      ],
      "stateMutability": "view",
      "type": "function"
    },
    {
      "inputs": [
        {
          "internalType": "bytes",
          "name": "signature",
          "type": "bytes"
        }
      ],
      "name": "becomeMember",
      "outputs": [],
      "stateMutability": "nonpayable",
      "type": "function"
    },
    {
      "inputs": [
        {
          "internalType": "uint256",
          "name": "dealId",
          "type": "uint256"
        }
      ],
      "name": "calcFundAmount",
      "outputs": [
        {
          "internalType": "uint256",
          "name": "totalAmount",
          "type": "uint256"
        },
        {
          "internalType": "uint256",
          "name": "amountWithDiscount",
          "type": "uint256"
        },
        {
          "internalType": "uint256",
          "name": "fundFee",
          "type": "uint256"
        }
      ],
      "stateMutability": "view",
      "type": "function"
    },
    {
      "inputs": [
        {
          "internalType": "uint256",
          "name": "paymentAmount",
          "type": "uint256"
        }
      ],
      "name": "calcMintFee",
      "outputs": [
        {
          "internalType": "uint256",
          "name": "",
          "type": "uint256"
        }
      ],
      "stateMutability": "view",
      "type": "function"
    },
    {
      "inputs": [
        {
          "internalType": "uint256",
          "name": "dealId",
          "type": "uint256"
        }
      ],
      "name": "calcPayAmount",
      "outputs": [
        {
          "internalType": "uint256",
          "name": "totalAmount",
          "type": "uint256"
        },
        {
          "internalType": "uint256",
          "name": "payAmount",
          "type": "uint256"
        },
        {
          "internalType": "uint256",
          "name": "payFee",
          "type": "uint256"
        }
      ],
      "stateMutability": "view",
      "type": "function"
    },
    {
      "inputs": [
        {
          "internalType": "uint256",
          "name": "dealId",
          "type": "uint256"
        }
      ],
      "name": "calcSplitFee",
      "outputs": [
        {
          "internalType": "uint256",
          "name": "totalAmount",
          "type": "uint256"
        },
        {
          "internalType": "uint256",
          "name": "paymentAmount",
          "type": "uint256"
        },
        {
          "internalType": "uint256",
          "name": "splitFee",
          "type": "uint256"
        }
      ],
      "stateMutability": "view",
      "type": "function"
    },
    {
      "inputs": [
        {
          "internalType": "uint256",
          "name": "dealId",
          "type": "uint256"
        },
        {
          "internalType": "bytes",
          "name": "data",
          "type": "bytes"
        }
      ],
      "name": "deal",
      "outputs": [],
      "stateMutability": "nonpayable",
      "type": "function"
    },
    {
      "inputs": [
        {
          "internalType": "uint256",
          "name": "",
          "type": "uint256"
        }
      ],
      "name": "dealDiscountPercent",
      "outputs": [
        {
          "internalType": "uint256",
          "name": "",
          "type": "uint256"
        }
      ],
      "stateMutability": "view",
      "type": "function"
    },
    {
      "inputs": [
        {
          "internalType": "uint256",
          "name": "",
          "type": "uint256"
        }
      ],
      "name": "dealURI",
      "outputs": [
        {
          "internalType": "string",
          "name": "",
          "type": "string"
        }
      ],
      "stateMutability": "view",
      "type": "function"
    },
    {
      "inputs": [
        {
          "internalType": "uint256",
          "name": "",
          "type": "uint256"
        }
      ],
      "name": "deals",
      "outputs": [
        {
          "internalType": "address",
          "name": "minter",
          "type": "address"
        },
        {
          "internalType": "address",
          "name": "obligor",
          "type": "address"
        },
        {
          "internalType": "string",
          "name": "offerHash",
          "type": "string"
        },
        {
          "internalType": "contract IERC20",
          "name": "paymentToken",
          "type": "address"
        },
        {
          "internalType": "uint256",
          "name": "paymentAmount",
          "type": "uint256"
        },
        {
          "internalType": "uint256",
          "name": "period",
          "type": "uint256"
        },
        {
          "internalType": "address",
          "name": "dealAccount",
          "type": "address"
        },
        {
          "internalType": "uint256",
          "name": "deadline",
          "type": "uint256"
        },
        {
          "internalType": "address",
          "name": "obligee",
          "type": "address"
        },
        {
          "internalType": "bool",
          "name": "obligorDeal",
          "type": "bool"
        },
        {
          "internalType": "bool",
          "name": "obligeeDeal",
          "type": "bool"
        },
        {
          "internalType": "address",
          "name": "arbitrator",
          "type": "address"
        },
        {
          "internalType": "enum IDegenDealsERC721.DealStatus",
          "name": "status",
          "type": "uint8"
        }
      ],
      "stateMutability": "view",
      "type": "function"
    },
    {
      "inputs": [],
      "name": "dedeal",
      "outputs": [
        {
          "internalType": "contract IDegenDealsERC20",
          "name": "",
          "type": "address"
        }
      ],
      "stateMutability": "view",
      "type": "function"
    },
    {
      "inputs": [],
      "name": "dedealRate",
      "outputs": [
        {
          "internalType": "uint256",
          "name": "",
          "type": "uint256"
        }
      ],
      "stateMutability": "view",
      "type": "function"
    },
    {
      "inputs": [],
      "name": "dedealsERC6551Registry",
      "outputs": [
        {
          "internalType": "contract IDegenDealsERC6551Registry",
          "name": "",
          "type": "address"
        }
      ],
      "stateMutability": "view",
      "type": "function"
    },
    {
      "inputs": [],
      "name": "defaultURI",
      "outputs": [
        {
          "internalType": "string",
          "name": "",
          "type": "string"
        }
      ],
      "stateMutability": "view",
      "type": "function"
    },
    {
      "inputs": [
        {
          "internalType": "uint256",
          "name": "dealId",
          "type": "uint256"
        },
        {
          "internalType": "uint256",
          "name": "dealDiscountPercent_",
          "type": "uint256"
        }
      ],
      "name": "designate",
      "outputs": [],
      "stateMutability": "nonpayable",
      "type": "function"
    },
    {
      "inputs": [
        {
          "internalType": "uint256",
          "name": "dealId",
          "type": "uint256"
        },
        {
          "internalType": "bytes",
          "name": "data",
          "type": "bytes"
        }
      ],
      "name": "fund",
      "outputs": [],
      "stateMutability": "nonpayable",
      "type": "function"
    },
    {
      "inputs": [],
      "name": "fundFeePercent",
      "outputs": [
        {
          "internalType": "uint256",
          "name": "",
          "type": "uint256"
        }
      ],
      "stateMutability": "view",
      "type": "function"
    },
    {
      "inputs": [
        {
          "internalType": "uint256",
          "name": "tokenId",
          "type": "uint256"
        }
      ],
      "name": "getApproved",
      "outputs": [
        {
          "internalType": "address",
          "name": "",
          "type": "address"
        }
      ],
      "stateMutability": "view",
      "type": "function"
    },
    {
      "inputs": [
        {
          "internalType": "uint256",
          "name": "dealId",
          "type": "uint256"
        }
      ],
      "name": "getDeal",
      "outputs": [
        {
          "components": [
            {
              "internalType": "address",
              "name": "minter",
              "type": "address"
            },
            {
              "internalType": "address",
              "name": "obligor",
              "type": "address"
            },
            {
              "internalType": "string",
              "name": "offerHash",
              "type": "string"
            },
            {
              "internalType": "contract IERC20",
              "name": "paymentToken",
              "type": "address"
            },
            {
              "internalType": "uint256",
              "name": "paymentAmount",
              "type": "uint256"
            },
            {
              "internalType": "uint256",
              "name": "period",
              "type": "uint256"
            },
            {
              "internalType": "address",
              "name": "dealAccount",
              "type": "address"
            },
            {
              "internalType": "uint256",
              "name": "deadline",
              "type": "uint256"
            },
            {
              "internalType": "address",
              "name": "obligee",
              "type": "address"
            },
            {
              "internalType": "bool",
              "name": "obligorDeal",
              "type": "bool"
            },
            {
              "internalType": "bool",
              "name": "obligeeDeal",
              "type": "bool"
            },
            {
              "internalType": "address",
              "name": "arbitrator",
              "type": "address"
            },
            {
              "internalType": "enum IDegenDealsERC721.DealStatus",
              "name": "status",
              "type": "uint8"
            }
          ],
          "internalType": "struct IDegenDealsERC721.DealData",
          "name": "",
          "type": "tuple"
        }
      ],
      "stateMutability": "view",
      "type": "function"
    },
    {
      "inputs": [
        {
          "internalType": "uint256",
          "name": "dealIdFrom",
          "type": "uint256"
        },
        {
          "internalType": "uint256",
          "name": "dealIdTo",
          "type": "uint256"
        }
      ],
      "name": "getDeals",
      "outputs": [
        {
          "components": [
            {
              "internalType": "address",
              "name": "minter",
              "type": "address"
            },
            {
              "internalType": "address",
              "name": "obligor",
              "type": "address"
            },
            {
              "internalType": "string",
              "name": "offerHash",
              "type": "string"
            },
            {
              "internalType": "contract IERC20",
              "name": "paymentToken",
              "type": "address"
            },
            {
              "internalType": "uint256",
              "name": "paymentAmount",
              "type": "uint256"
            },
            {
              "internalType": "uint256",
              "name": "period",
              "type": "uint256"
            },
            {
              "internalType": "address",
              "name": "dealAccount",
              "type": "address"
            },
            {
              "internalType": "uint256",
              "name": "deadline",
              "type": "uint256"
            },
            {
              "internalType": "address",
              "name": "obligee",
              "type": "address"
            },
            {
              "internalType": "bool",
              "name": "obligorDeal",
              "type": "bool"
            },
            {
              "internalType": "bool",
              "name": "obligeeDeal",
              "type": "bool"
            },
            {
              "internalType": "address",
              "name": "arbitrator",
              "type": "address"
            },
            {
              "internalType": "enum IDegenDealsERC721.DealStatus",
              "name": "status",
              "type": "uint8"
            }
          ],
          "internalType": "struct IDegenDealsERC721.DealData[]",
          "name": "dealDatas",
          "type": "tuple[]"
        }
      ],
      "stateMutability": "view",
      "type": "function"
    },
    {
      "inputs": [
        {
          "internalType": "bytes32",
          "name": "role",
          "type": "bytes32"
        }
      ],
      "name": "getRoleAdmin",
      "outputs": [
        {
          "internalType": "bytes32",
          "name": "",
          "type": "bytes32"
        }
      ],
      "stateMutability": "view",
      "type": "function"
    },
    {
      "inputs": [
        {
          "internalType": "uint256",
          "name": "dealId",
          "type": "uint256"
        }
      ],
      "name": "getRootDealId",
      "outputs": [
        {
          "internalType": "uint256",
          "name": "rootDealId",
          "type": "uint256"
        }
      ],
      "stateMutability": "view",
      "type": "function"
    },
    {
      "inputs": [
        {
          "internalType": "address",
          "name": "member",
          "type": "address"
        },
        {
          "internalType": "bytes",
          "name": "signature",
          "type": "bytes"
        }
      ],
      "name": "grantMember",
      "outputs": [],
      "stateMutability": "nonpayable",
      "type": "function"
    },
    {
      "inputs": [
        {
          "internalType": "bytes32",
          "name": "role",
          "type": "bytes32"
        },
        {
          "internalType": "address",
          "name": "account",
          "type": "address"
        }
      ],
      "name": "grantRole",
      "outputs": [],
      "stateMutability": "nonpayable",
      "type": "function"
    },
    {
      "inputs": [
        {
          "internalType": "bytes32",
          "name": "role",
          "type": "bytes32"
        },
        {
          "internalType": "address",
          "name": "account",
          "type": "address"
        }
      ],
      "name": "hasRole",
      "outputs": [
        {
          "internalType": "bool",
          "name": "",
          "type": "bool"
        }
      ],
      "stateMutability": "view",
      "type": "function"
    },
    {
      "inputs": [
        {
          "internalType": "address",
          "name": "owner",
          "type": "address"
        },
        {
          "internalType": "address",
          "name": "operator",
          "type": "address"
        }
      ],
      "name": "isApprovedForAll",
      "outputs": [
        {
          "internalType": "bool",
          "name": "",
          "type": "bool"
        }
      ],
      "stateMutability": "view",
      "type": "function"
    },
    {
      "inputs": [
        {
          "internalType": "address",
          "name": "wallet",
          "type": "address"
        }
      ],
      "name": "isMember",
      "outputs": [
        {
          "internalType": "bool",
          "name": "",
          "type": "bool"
        }
      ],
      "stateMutability": "view",
      "type": "function"
    },
    {
      "inputs": [
        {
          "internalType": "address",
          "name": "",
          "type": "address"
        }
      ],
      "name": "isPaymentToken",
      "outputs": [
        {
          "internalType": "bool",
          "name": "",
          "type": "bool"
        }
      ],
      "stateMutability": "view",
      "type": "function"
    },
    {
      "inputs": [],
      "name": "kycWallet",
      "outputs": [
        {
          "internalType": "address",
          "name": "",
          "type": "address"
        }
      ],
      "stateMutability": "view",
      "type": "function"
    },
    {
      "inputs": [],
      "name": "legalFeeShare",
      "outputs": [
        {
          "internalType": "uint256",
          "name": "",
          "type": "uint256"
        }
      ],
      "stateMutability": "view",
      "type": "function"
    },
    {
      "inputs": [],
      "name": "legalWallet",
      "outputs": [
        {
          "internalType": "address",
          "name": "",
          "type": "address"
        }
      ],
      "stateMutability": "view",
      "type": "function"
    },
    {
      "inputs": [
        {
          "internalType": "string",
          "name": "offerHash",
          "type": "string"
        },
        {
          "internalType": "address",
          "name": "paymentToken",
          "type": "address"
        },
        {
          "internalType": "uint256",
          "name": "paymentAmount",
          "type": "uint256"
        },
        {
          "internalType": "uint256",
          "name": "period",
          "type": "uint256"
        },
        {
          "internalType": "address",
          "name": "obligee",
          "type": "address"
        },
        {
          "internalType": "address",
          "name": "erc6551Account",
          "type": "address"
        }
      ],
      "name": "mint",
      "outputs": [
        {
          "internalType": "uint256",
          "name": "dealId",
          "type": "uint256"
        },
        {
          "internalType": "address",
          "name": "dealAccount",
          "type": "address"
        }
      ],
      "stateMutability": "nonpayable",
      "type": "function"
    },
    {
      "inputs": [],
      "name": "mintFeePercent",
      "outputs": [
        {
          "internalType": "uint256",
          "name": "",
          "type": "uint256"
        }
      ],
      "stateMutability": "view",
      "type": "function"
    },
    {
      "inputs": [
        {
          "internalType": "address",
          "name": "token",
          "type": "address"
        },
        {
          "internalType": "bool",
          "name": "_isPaymentToken",
          "type": "bool"
        }
      ],
      "name": "modifyPaymentToken",
      "outputs": [],
      "stateMutability": "nonpayable",
      "type": "function"
    },
    {
      "inputs": [],
      "name": "name",
      "outputs": [
        {
          "internalType": "string",
          "name": "",
          "type": "string"
        }
      ],
      "stateMutability": "view",
      "type": "function"
    },
    {
      "inputs": [
        {
          "internalType": "uint256",
          "name": "",
          "type": "uint256"
        },
        {
          "internalType": "address",
          "name": "",
          "type": "address"
        },
        {
          "internalType": "address",
          "name": "",
          "type": "address"
        }
      ],
      "name": "obligeeTransfer",
      "outputs": [
        {
          "internalType": "bool",
          "name": "",
          "type": "bool"
        }
      ],
      "stateMutability": "view",
      "type": "function"
    },
    {
      "inputs": [
        {
          "internalType": "uint256",
          "name": "",
          "type": "uint256"
        },
        {
          "internalType": "address",
          "name": "",
          "type": "address"
        },
        {
          "internalType": "address",
          "name": "",
          "type": "address"
        }
      ],
      "name": "obligorTransfer",
      "outputs": [
        {
          "internalType": "bool",
          "name": "",
          "type": "bool"
        }
      ],
      "stateMutability": "view",
      "type": "function"
    },
    {
      "inputs": [
        {
          "internalType": "uint256",
          "name": "tokenId",
          "type": "uint256"
        }
      ],
      "name": "ownerOf",
      "outputs": [
        {
          "internalType": "address",
          "name": "",
          "type": "address"
        }
      ],
      "stateMutability": "view",
      "type": "function"
    },
    {
      "inputs": [
        {
          "internalType": "uint256",
          "name": "",
          "type": "uint256"
        }
      ],
      "name": "parentDealId",
      "outputs": [
        {
          "internalType": "uint256",
          "name": "",
          "type": "uint256"
        }
      ],
      "stateMutability": "view",
      "type": "function"
    },
    {
      "inputs": [
        {
          "internalType": "uint256",
          "name": "dealId",
          "type": "uint256"
        },
        {
          "internalType": "bytes",
          "name": "data",
          "type": "bytes"
        }
      ],
      "name": "pay",
      "outputs": [],
      "stateMutability": "nonpayable",
      "type": "function"
    },
    {
      "inputs": [],
      "name": "payFeePercent",
      "outputs": [
        {
          "internalType": "uint256",
          "name": "",
          "type": "uint256"
        }
      ],
      "stateMutability": "view",
      "type": "function"
    },
    {
      "inputs": [],
      "name": "platformFeeShare",
      "outputs": [
        {
          "internalType": "uint256",
          "name": "",
          "type": "uint256"
        }
      ],
      "stateMutability": "view",
      "type": "function"
    },
    {
      "inputs": [],
      "name": "platformWallet",
      "outputs": [
        {
          "internalType": "address",
          "name": "",
          "type": "address"
        }
      ],
      "stateMutability": "view",
      "type": "function"
    },
    {
      "inputs": [],
      "name": "quitFromMember",
      "outputs": [],
      "stateMutability": "nonpayable",
      "type": "function"
    },
    {
      "inputs": [
        {
          "internalType": "bytes32",
          "name": "role",
          "type": "bytes32"
        },
        {
          "internalType": "address",
          "name": "callerConfirmation",
          "type": "address"
        }
      ],
      "name": "renounceRole",
      "outputs": [],
      "stateMutability": "nonpayable",
      "type": "function"
    },
    {
      "inputs": [
        {
          "internalType": "uint256",
          "name": "dealId",
          "type": "uint256"
        },
        {
          "internalType": "uint8",
          "name": "decision",
          "type": "uint8"
        }
      ],
      "name": "resolve",
      "outputs": [],
      "stateMutability": "nonpayable",
      "type": "function"
    },
    {
      "inputs": [
        {
          "internalType": "bytes32",
          "name": "role",
          "type": "bytes32"
        },
        {
          "internalType": "address",
          "name": "account",
          "type": "address"
        }
      ],
      "name": "revokeRole",
      "outputs": [],
      "stateMutability": "nonpayable",
      "type": "function"
    },
    {
      "inputs": [
        {
          "internalType": "uint256",
          "name": "dealId",
          "type": "uint256"
        },
        {
          "internalType": "uint256",
          "name": "salePrice",
          "type": "uint256"
        }
      ],
      "name": "royaltyInfo",
      "outputs": [
        {
          "internalType": "address",
          "name": "receiver",
          "type": "address"
        },
        {
          "internalType": "uint256",
          "name": "royaltyAmount",
          "type": "uint256"
        }
      ],
      "stateMutability": "view",
      "type": "function"
    },
    {
      "inputs": [],
      "name": "royaltyPercent",
      "outputs": [
        {
          "internalType": "uint256",
          "name": "",
          "type": "uint256"
        }
      ],
      "stateMutability": "view",
      "type": "function"
    },
    {
      "inputs": [
        {
          "internalType": "address",
          "name": "from",
          "type": "address"
        },
        {
          "internalType": "address",
          "name": "to",
          "type": "address"
        },
        {
          "internalType": "uint256",
          "name": "tokenId",
          "type": "uint256"
        }
      ],
      "name": "safeTransferFrom",
      "outputs": [],
      "stateMutability": "nonpayable",
      "type": "function"
    },
    {
      "inputs": [
        {
          "internalType": "address",
          "name": "from",
          "type": "address"
        },
        {
          "internalType": "address",
          "name": "to",
          "type": "address"
        },
        {
          "internalType": "uint256",
          "name": "tokenId",
          "type": "uint256"
        },
        {
          "internalType": "bytes",
          "name": "data",
          "type": "bytes"
        }
      ],
      "name": "safeTransferFrom",
      "outputs": [],
      "stateMutability": "nonpayable",
      "type": "function"
    },
    {
      "inputs": [
        {
          "internalType": "address",
          "name": "operator",
          "type": "address"
        },
        {
          "internalType": "bool",
          "name": "approved",
          "type": "bool"
        }
      ],
      "name": "setApprovalForAll",
      "outputs": [],
      "stateMutability": "nonpayable",
      "type": "function"
    },
    {
      "inputs": [
        {
          "internalType": "uint256",
          "name": "dealId",
          "type": "uint256"
        },
        {
          "internalType": "string",
          "name": "dealURI_",
          "type": "string"
        }
      ],
      "name": "setDealURI",
      "outputs": [],
      "stateMutability": "nonpayable",
      "type": "function"
    },
    {
      "inputs": [
        {
          "internalType": "string",
          "name": "_defaultURI",
          "type": "string"
        }
      ],
      "name": "setDefaultURI",
      "outputs": [],
      "stateMutability": "nonpayable",
      "type": "function"
    },
    {
      "inputs": [
        {
          "internalType": "address",
          "name": "kycWallet_",
          "type": "address"
        }
      ],
      "name": "setKYCWallet",
      "outputs": [],
      "stateMutability": "nonpayable",
      "type": "function"
    },
    {
      "inputs": [
        {
          "internalType": "address",
          "name": "legalWallet_",
          "type": "address"
        }
      ],
      "name": "setLegalWallet",
      "outputs": [],
      "stateMutability": "nonpayable",
      "type": "function"
    },
    {
      "inputs": [
        {
          "internalType": "address",
          "name": "platformWallet_",
          "type": "address"
        }
      ],
      "name": "setPlatformWallet",
      "outputs": [],
      "stateMutability": "nonpayable",
      "type": "function"
    },
    {
      "inputs": [
        {
          "internalType": "uint256",
          "name": "dealId",
          "type": "uint256"
        },
        {
          "internalType": "uint256[]",
          "name": "paymentAmounts",
          "type": "uint256[]"
        }
      ],
      "name": "split",
      "outputs": [
        {
          "internalType": "uint256",
          "name": "splitDealIdFrom",
          "type": "uint256"
        },
        {
          "internalType": "uint256",
          "name": "splitDealIdTo",
          "type": "uint256"
        }
      ],
      "stateMutability": "nonpayable",
      "type": "function"
    },
    {
      "inputs": [],
      "name": "splitFeePercent",
      "outputs": [
        {
          "internalType": "uint256",
          "name": "",
          "type": "uint256"
        }
      ],
      "stateMutability": "view",
      "type": "function"
    },
    {
      "inputs": [
        {
          "internalType": "bytes4",
          "name": "interfaceId",
          "type": "bytes4"
        }
      ],
      "name": "supportsInterface",
      "outputs": [
        {
          "internalType": "bool",
          "name": "",
          "type": "bool"
        }
      ],
      "stateMutability": "view",
      "type": "function"
    },
    {
      "inputs": [],
      "name": "symbol",
      "outputs": [
        {
          "internalType": "string",
          "name": "",
          "type": "string"
        }
      ],
      "stateMutability": "view",
      "type": "function"
    },
    {
      "inputs": [
        {
          "internalType": "uint256",
          "name": "dealId",
          "type": "uint256"
        }
      ],
      "name": "tokenURI",
      "outputs": [
        {
          "internalType": "string",
          "name": "",
          "type": "string"
        }
      ],
      "stateMutability": "view",
      "type": "function"
    },
    {
      "inputs": [],
      "name": "totalDeals",
      "outputs": [
        {
          "internalType": "uint256",
          "name": "",
          "type": "uint256"
        }
      ],
      "stateMutability": "view",
      "type": "function"
    },
    {
      "inputs": [],
      "name": "totalFeeShare",
      "outputs": [
        {
          "internalType": "uint256",
          "name": "",
          "type": "uint256"
        }
      ],
      "stateMutability": "view",
      "type": "function"
    },
    {
      "inputs": [
        {
          "internalType": "uint256",
          "name": "dealId",
          "type": "uint256"
        },
        {
          "internalType": "bytes",
          "name": "data",
          "type": "bytes"
        }
      ],
      "name": "tranferObligee",
      "outputs": [],
      "stateMutability": "nonpayable",
      "type": "function"
    },
    {
      "inputs": [
        {
          "internalType": "uint256",
          "name": "dealId",
          "type": "uint256"
        },
        {
          "internalType": "bytes",
          "name": "data",
          "type": "bytes"
        }
      ],
      "name": "tranferObligor",
      "outputs": [],
      "stateMutability": "nonpayable",
      "type": "function"
    },
    {
      "inputs": [],
      "name": "transferFeePercent",
      "outputs": [
        {
          "internalType": "uint256",
          "name": "",
          "type": "uint256"
        }
      ],
      "stateMutability": "view",
      "type": "function"
    },
    {
      "inputs": [
        {
          "internalType": "address",
          "name": "from",
          "type": "address"
        },
        {
          "internalType": "address",
          "name": "to",
          "type": "address"
        },
        {
          "internalType": "uint256",
          "name": "dealId",
          "type": "uint256"
        }
      ],
      "name": "transferFrom",
      "outputs": [],
      "stateMutability": "nonpayable",
      "type": "function"
    }
  ],
  "bytecode": "0x60806040523480156200001157600080fd5b5060405162004f9438038062004f9483398101604081905262000034916200029c565b6040518060400160405280601681526020017f446567656e204465616c7320436f6c6c656374696f6e000000000000000000008152506040518060400160405280600781526020016644654445414c5360c81b81525081600190816200009b9190620003b3565b506002620000aa8282620003b3565b50339150620000bd9050600082620001d0565b50620000d960008051602062004f7483398151915282620001d0565b50620000f560008051602062004f7483398151915285620001d0565b506200011160008051602062004f7483398151915284620001d0565b50600060078190556040805160208101909152908152600890620001369082620003b3565b50600c80546001600160a01b03199081166001600160a01b0389811691909117909255600d80548216888416179055600980548216878416179055600a80548216868416179055600b80549091169184169190911790556101f4600e8190556010819055600f819055606460125561138860135560158190556014819055620001c090806200047f565b60165550620004a1945050505050565b6000828152602081815260408083206001600160a01b038516845290915281205460ff1662000275576000838152602081815260408083206001600160a01b03861684529091529020805460ff191660011790556200022c3390565b6001600160a01b0316826001600160a01b0316847f2f8788117e7eff1d82e926ec794901d17c78024a50270940304540a733656f0d60405160405180910390a450600162000279565b5060005b92915050565b80516001600160a01b03811681146200029757600080fd5b919050565b600080600080600060a08688031215620002b557600080fd5b620002c0866200027f565b9450620002d0602087016200027f565b9350620002e0604087016200027f565b9250620002f0606087016200027f565b915062000300608087016200027f565b90509295509295909350565b634e487b7160e01b600052604160045260246000fd5b600181811c908216806200033757607f821691505b6020821081036200035857634e487b7160e01b600052602260045260246000fd5b50919050565b601f821115620003ae576000816000526020600020601f850160051c81016020861015620003895750805b601f850160051c820191505b81811015620003aa5782815560010162000395565b5050505b505050565b81516001600160401b03811115620003cf57620003cf6200030c565b620003e781620003e0845462000322565b846200035e565b602080601f8311600181146200041f5760008415620004065750858301515b600019600386901b1c1916600185901b178555620003aa565b600085815260208120601f198616915b8281101562000450578886015182559484019460019091019084016200042f565b50858210156200046f5787850151600019600388901b60f8161c191681555b5050505050600190811b01905550565b808201808211156200027957634e487b7160e01b600052601160045260246000fd5b614ac380620004b16000396000f3fe608060405234801561001057600080fd5b506004361061045d5760003560e01c80638831e9cf1161024c578063afa2876711610146578063e25ba707116100c3578063efbf42ff11610087578063efbf42ff14610a72578063f47fef6314610aa6578063f63ffd3014610ab9578063fa2af9da14610acc578063ffb983f614610adf57600080fd5b8063e25ba70714610a1b578063e513c69e14610a2e578063e985e9c514610a41578063eb6de1ab14610a54578063ef680d6a14610a5d57600080fd5b8063bfc321e31161010a578063bfc321e3146109b9578063c87b56dd146109d9578063d547741f146109ec578063da1b9e08146109ff578063dacfa11614610a1257600080fd5b8063afa287671461093d578063b26abdd714610950578063b88d4fde14610980578063bac85d5e14610993578063be2ee0be146109a657600080fd5b80639cea0787116101d4578063a22cb46511610198578063a22cb465146108bd578063a230c524146108d0578063a36d765e146108e3578063a39ec7e0146108f6578063a7da30271461090957600080fd5b80639cea0787146108665780639e6c29591461088d5780639f67756d14610897578063a10f469e146108a0578063a217fddf146108b557600080fd5b8063930eaddc1161021b578063930eaddc1461081657806394544e641461083957806395d89b4114610842578063966d1f1d1461084a5780639c0e16081461085357600080fd5b80638831e9cf146107bd5780638904cdc5146107d0578063895abcdf146107f057806391d148541461080357600080fd5b80632ed003e61161035d57806342a62ee0116102e55780636b6e5372116102a95780636b6e5372146107365780636fba547d1461076457806370a082311461077757806380f41e761461078a57806382fd5bac1461079d57600080fd5b806342a62ee0146106d75780634d415c1e146106df578063584c39bf146106e85780636352211e146106fb57806369c672471461070e57600080fd5b806336568abe1161032c57806336568abe146106835780633a367a67146106965780633e9f50871461069e5780633edd10c5146106b157806342842e0e146106c457600080fd5b80632ed003e6146106375780632f2ff15d1461064a57806330c204701461065d57806335f3c6401461067057600080fd5b8063095ea7b3116103eb57806323b872dd116103af57806323b872dd146105a95780632469e8af146105bc578063248a9ca3146105cf5780632a55205a146105f25780632d2bb1541461062457600080fd5b8063095ea7b314610547578063127dc2511461055a5780631aa415ea146105635780631d2db7e1146105835780631fdd01c21461059657600080fd5b806303b9b14c1161043257806303b9b14c146104e25780630541d0b0146104eb57806306fdde03146104f4578063078db51614610509578063081812fc1461051c57600080fd5b80622d0f6e146104625780628dd0da1461047757806301ffc9a71461049357806303988f84146104b6575b600080fd5b610475610470366004613fa3565b610ae8565b005b61048060155481565b6040519081526020015b60405180910390f35b6104a66104a1366004613ff2565b610b2c565b604051901515815260200161048a565b6104c96104c436600461400f565b610b4c565b60405161048a9d9c9b9a999897969594939291906140b0565b61048060115481565b610480600e5481565b6104fc610c60565b60405161048a9190614156565b610475610517366004614220565b610cf2565b61052f61052a36600461400f565b610e97565b6040516001600160a01b03909116815260200161048a565b610475610555366004614267565b610ec0565b61048060165481565b610576610571366004614293565b610ecf565b60405161048a91906143b8565b600d5461052f906001600160a01b031681565b6104756105a436600461441c565b6111a5565b6104756105b7366004614439565b6111e0565b600c5461052f906001600160a01b031681565b6104806105dd36600461400f565b60009081526020819052604090206001015490565b610605610600366004614293565b611323565b604080516001600160a01b03909316835260208301919091520161048a565b600b5461052f906001600160a01b031681565b610475610645366004614220565b61135a565b61047561065836600461447a565b611429565b61047561066b36600461449f565b61144e565b61047561067e36600461441c565b61146b565b61047561069136600461447a565b6114a6565b6104fc6114d9565b6104756106ac366004614293565b611567565b6104756106bf366004614220565b61159b565b6104756106d2366004614439565b61181e565b610475611839565b610480600f5481565b6104756106f6366004614267565b611869565b61052f61070936600461400f565b61189b565b61072161071c3660046144d9565b6118a6565b6040805192835260208301919091520161048a565b61074961074436600461400f565b611e7d565b6040805193845260208401929092529082015260600161048a565b61047561077236600461458b565b611ee8565b61048061078536600461441c565b611f00565b61048061079836600461400f565b611f48565b6107b06107ab36600461400f565b611f66565b60405161048a91906145c0565b6104756107cb36600461441c565b6120f3565b6104806107de36600461400f565b601a6020526000908152604090205481565b6104756107fe366004614220565b61212e565b6104a661081136600461447a565b6123ae565b6104a661082436600461441c565b60186020526000908152604090205460ff1681565b61048060125481565b6104fc6123d7565b61048060075481565b6104756108613660046145d3565b6123e6565b6104807f16ceee8289685dd2a02b9c8ae81d2df373176ce53519e6284e2a2950d6546ffa81565b610480620186a081565b61048060135481565b610480600080516020614a6e83398151915281565b610480600081565b6104756108cb366004613fa3565b612526565b6104a66108de36600461441c565b612531565b6104fc6108f136600461400f565b61254b565b61074961090436600461400f565b612564565b6104a66109173660046145fe565b601e60209081526000938452604080852082529284528284209052825290205460ff1681565b600a5461052f906001600160a01b031681565b61096361095e366004614640565b61258a565b604080519283526001600160a01b0390911660208301520161048a565b61047561098e3660046146c9565b61294e565b6107496109a136600461400f565b612965565b6104756109b436600461400f565b612b26565b6104806109c736600461400f565b601b6020526000908152604090205481565b6104fc6109e736600461400f565b612c55565b6104756109fa36600461447a565b612d9c565b610475610a0d36600461458b565b612dc1565b61048060175481565b610475610a29366004614220565b612de5565b610480610a3c36600461400f565b612f4f565b6104a6610a4f366004614735565b612f80565b61048060145481565b610480600080516020614a4e83398151915281565b6104a6610a803660046145fe565b601d60209081526000938452604080852082529284528284209052825290205460ff1681565b610475610ab4366004614293565b612fae565b610475610ac7366004614220565b613141565b60095461052f906001600160a01b031681565b61048060105481565b600080516020614a4e833981519152610b00816132da565b506001600160a01b03919091166000908152601860205260409020805460ff1916911515919091179055565b6000610b37826132e7565b80610b465750610b4682613322565b92915050565b6019602052600090815260409020805460018201546002830180546001600160a01b03938416949290931692610b8190614763565b80601f0160208091040260200160405190810160405280929190818152602001828054610bad90614763565b8015610bfa5780601f10610bcf57610100808354040283529160200191610bfa565b820191906000526020600020905b815481529060010190602001808311610bdd57829003601f168201915b50505060038401546004850154600586015460068701546007880154600889015460099099015497986001600160a01b03958616989497509295509084169390928282169260ff600160a01b808304821694600160a81b9093048216939283169204168d565b606060018054610c6f90614763565b80601f0160208091040260200160405190810160405280929190818152602001828054610c9b90614763565b8015610ce85780601f10610cbd57610100808354040283529160200191610ce8565b820191906000526020600020905b815481529060010190602001808311610ccb57829003601f168201915b5050505050905090565b600082815260196020526040902060088101546001600160a01b031633808203610d54576000858152601e602090815260408083206001600160a01b03808716855290835281842090851684529091529020805460ff19166001179055610e90565b6000858152601e602090815260408083206001600160a01b038087168552908352818420908516845290915290205460ff1615610e74576006830154604051633cc9efb560e11b81526001600160a01b03909116908190637993df6a90610dbf908890600401614156565b600060405180830381600087803b158015610dd957600080fd5b505af1925050508015610dea575060015b610e2457600684015460405163c7df879b60e01b8152600481018890526001600160a01b0390911660248201526044015b60405180910390fd5b506008830180546001600160a01b031916331790556000858152601e602090815260408083206001600160a01b03868116855290835281842090851684529091529020805460ff19169055610e90565b60405163e4ee440560e01b815260048101869052602401610e1b565b5050505050565b6000610ea282613357565b506000828152600560205260409020546001600160a01b0316610b46565b610ecb828233613390565b5050565b606081831115610f115760405162461bcd60e51b815260206004820152600d60248201526c496e76616c69642072616e676560981b6044820152606401610e1b565b600754600003610f54576040805160008082526020820190925290610f4c565b610f39613f15565b815260200190600190039081610f315790505b509050610fc4565b6000610f6084846147ad565b610f6b9060016147c0565b90508067ffffffffffffffff811115610f8657610f86614169565b604051908082528060200260200182016040528015610fbf57816020015b610fac613f15565b815260200190600190039081610fa45790505b509150505b6007548210610fdf576001600754610fdc91906147ad565b91505b825b82811161119e5760008181526019602090815260409182902082516101a08101845281546001600160a01b03908116825260018301541692810192909252600281018054929391929184019161103690614763565b80601f016020809104026020016040519081016040528092919081815260200182805461106290614763565b80156110af5780601f10611084576101008083540402835291602001916110af565b820191906000526020600020905b81548152906001019060200180831161109257829003601f168201915b505050918352505060038201546001600160a01b039081166020830152600483015460408301526005830154606083015260068301548116608083015260078084015460a0840152600884015480831660c085015260ff600160a01b8083048216151560e0870152600160a81b9092048116151561010086015260098601549384166101208601526101409094019392049091169081111561115357611153614078565b600781111561116457611164614078565b9052508261117286846147ad565b81518110611182576111826147d3565b602002602001018190525080611197906147e9565b9050610fe1565b5092915050565b600080516020614a4e8339815191526111bd816132da565b50600a80546001600160a01b0319166001600160a01b0392909216919091179055565b600081815260196020526040902060046009820154600160a01b900460ff16600781111561121057611210614078565b148061123b575060076009820154600160a01b900460ff16600781111561123957611239614078565b145b156112505761124b84848461339d565b61131d565b60056009820154600160a01b900460ff16600781111561127257611272614078565b148061129d575060066009820154600160a01b900460ff16600781111561129b5761129b614078565b145b156112bb576040516363c6ddcd60e01b815260040160405180910390fd5b6000620186a060125483600401546112d39190614802565b6112dd9190614819565b60038301549091506112fa906001600160a01b0316863084613422565b6003820154611312906001600160a01b031682613489565b610e9085858561339d565b50505050565b6009546013546001600160a01b0390911690600090620186a0906113479085614802565b6113519190614819565b90509250929050565b600082815260196020526040902060046009820154600160a01b900460ff16600781111561138a5761138a614078565b14806113b5575060076009820154600160a01b900460ff1660078111156113b3576113b3614078565b145b6114115760405162461bcd60e51b815260206004820152602760248201527f446567656e4465616c734552433732313a206f6e6c79204445414c206f7220526044820152661154d3d315915160ca1b6064820152608401610e1b565b6000838152601c6020526040902061131d838261488b565b600082815260208190526040902060010154611444816132da565b61131d8383613507565b611466600080516020614a6e83398151915283613507565b505050565b600080516020614a4e833981519152611483816132da565b50600b80546001600160a01b0319166001600160a01b0392909216919091179055565b6001600160a01b03811633146114cf5760405163334bd91960e11b815260040160405180910390fd5b6114668282613599565b600880546114e690614763565b80601f016020809104026020016040519081016040528092919081815260200182805461151290614763565b801561155f5780601f106115345761010080835404028352916020019161155f565b820191906000526020600020905b81548152906001019060200180831161154257829003601f168201915b505050505081565b600080516020614a4e83398151915261157f816132da565b600061158b83856147c0565b6016555050601491909155601555565b600080516020614a6e8339815191526115b3816132da565b6000838152601960205260408120906009820154600160a01b900460ff1660078111156115e2576115e2614078565b1461162f5760405162461bcd60e51b815260206004820152601e60248201527f446567656e4465616c734552433732313a206f6e6c79204d494e5445442000006044820152606401610e1b565b60038101546001600160a01b03166000808061164a88612965565b919450925090506116666001600160a01b038516333086613422565b6116708482613489565b60088501546000906001600160a01b03166116b657506008850180546001600160a01b0319163390811790915560058601546116ac90426147c0565b6007870155611702565b6008860154336001600160a01b03909116036116e0575060088501546001600160a01b0316611702565b604051630ddfe6a560e11b8152600481018a9052336024820152604401610e1b565b60068601546001600160a01b03908116906117209087168286613604565b604051630ddb425f60e31b81526001600160a01b03821690636eda12f89061174c908c90600401614156565b600060405180830381600087803b15801561176657600080fd5b505af1925050508015611777575060015b6117945760405163a4b9ff9360e01b815260040160405180910390fd5b60098701805460ff60a01b1916600160a01b17905560018701546117c2906001600160a01b0316838c613694565b604080518b81526001600160a01b0384811660208301528816818301526060810186905290517fece4e547ae0655a2613e99bed9e2f496b3b3dd8b0768cfbae0a6070b05782cea9181900360800190a150505050505050505050565b6114668383836040518060200160405280600081525061294e565b600080516020614a6e833981519152611851816132da565b610ecb600080516020614a6e83398151915233613599565b600061187482611f48565b90508015611466576118916001600160a01b038416333084613422565b6114668382613489565b6000610b4682613357565b600080600080516020614a6e8339815191526118c1816132da565b600085815260196020526040902060018101546001600160a01b0316331461193c5760405162461bcd60e51b815260206004820152602860248201527f446567656e4465616c734552433732313a2073706c69742063616e206f6e6c796044820152671037b13634b3b7b960c11b6064820152608401610e1b565b60006009820154600160a01b900460ff16600781111561195e5761195e614078565b146119bb5760405162461bcd60e51b815260206004820152602760248201527f446567656e4465616c734552433732313a206465616c2073746174757320213d6044820152660813525395115160ca1b6064820152608401610e1b565b845180611a0a5760405162461bcd60e51b815260206004820152601a60248201527f446567656e4465616c734552433732313a206c656e203d3d20300000000000006044820152606401610e1b565b6000805b82811015611a4557878181518110611a2857611a286147d3565b602002602001015182611a3b91906147c0565b9150600101611a0e565b5080836004015414611abf5760405162461bcd60e51b815260206004820152603760248201527f446567656e4465616c734552433732313a20696e76616c6964207072696e636960448201527f70616c416d6f756e7420666f722073706c697474696e670000000000000000006064820152608401610e1b565b6007549550336000805b84811015611e555760078054906000611ae1836147e9565b90915550600d54604051636c52fc7560e11b8152600481018e9052602481018390526001600160a01b039091169063d8a5f8ea906044016020604051808303816000875af1158015611b37573d6000803e3d6000fd5b505050506040513d601f19601f82011682018060405250810190611b5b919061494b565b9250611b678482613744565b604080516101a08101825288546001600160a01b039081168252861660208201526002890180549192830191611b9c90614763565b80601f0160208091040260200160405190810160405280929190818152602001828054611bc890614763565b8015611c155780601f10611bea57610100808354040283529160200191611c15565b820191906000526020600020905b815481529060010190602001808311611bf857829003601f168201915b505050918352505060038901546001600160a01b031660208201528c516040909101908d9085908110611c4a57611c4a6147d3565b602090810291909101810151825260058a01549082015260068901546001600160a01b03908116604083015260078a0154606083015260088a0154808216608084015260ff600160a01b82048116151560a0850152600160a81b90910416151560c083015260098a01541660e08201526101000160009052600082815260196020908152604091829020835181546001600160a01b03199081166001600160a01b0392831617835592850151600183018054909416911617909155908201516002820190611d18908261488b565b5060608201516003820180546001600160a01b03199081166001600160a01b03938416179091556080840151600484015560a0840151600584015560c0840151600684018054831691841691909117905560e08401516007808501919091556101008501516008850180546101208801516101408901519387166001600160a81b031992831617600160a01b91151582021760ff60a81b1916600160a81b9415159490940293909317909155610160870151600987018054958616919096169081178655610180880151959490911617918490811115611dfa57611dfa614078565b021790555050506000818152601a6020526040908190208d9055517f734b7c838092bed0c73268b7a2cb67b07305321ec5c5610480c2c4c5d43d698e90611e44908e815260200190565b60405180910390a150600101611ac9565b50611e5f8a6137a9565b6001600754611e6e91906147ad565b96505050505050509250929050565b6000818152601b6020908152604080832054601990925282206004015482918291620186a091611eac91614802565b611eb69190614819565b9150620186a060115483611eca9190614802565b611ed49190614819565b9050611ee081836147c0565b949193509150565b610ecb600080516020614a6e83398151915233613507565b60006001600160a01b038216611f2c576040516322718ad960e21b815260006004820152602401610e1b565b506001600160a01b031660009081526004602052604090205490565b6000620186a0600e5483611f5c9190614802565b610b469190614819565b611f6e613f15565b60008281526019602090815260409182902082516101a08101845281546001600160a01b039081168252600183015416928101929092526002810180549293919291840191611fbc90614763565b80601f0160208091040260200160405190810160405280929190818152602001828054611fe890614763565b80156120355780601f1061200a57610100808354040283529160200191612035565b820191906000526020600020905b81548152906001019060200180831161201857829003601f168201915b505050918352505060038201546001600160a01b039081166020830152600483015460408301526005830154606083015260068301548116608083015260078084015460a0840152600884015480831660c085015260ff600160a01b8083048216151560e0870152600160a81b909204811615156101008601526009860154938416610120860152610140909401939204909116908111156120d9576120d9614078565b60078111156120ea576120ea614078565b90525092915050565b600080516020614a4e83398151915261210b816132da565b50600980546001600160a01b0319166001600160a01b0392909216919091179055565b600080516020614a6e833981519152612146816132da565b600083815260196020526040902060056009820154600160a01b900460ff16600781111561217657612176614078565b1415806121a3575060066009820154600160a01b900460ff1660078111156121a0576121a0614078565b14155b61220b5760405162461bcd60e51b815260206004820152603360248201527f446567656e4465616c734552433732313a2063616e74206465616c2c20776865604482015272371030b93134ba3930b3b29034b99037b832b760691b6064820152608401610e1b565b6006810154604051637215925760e11b81526001600160a01b0390911690819063e42b24ae9061223f908790600401614156565b600060405180830381600087803b15801561225957600080fd5b505af192505050801561226a575060015b612287576040516324c8c4bd60e11b815260040160405180910390fd5b60018201546001600160a01b031633036122cd57600882018054600160a01b60ff60a01b19918216811790925560098401805460029391921690835b0217905550612334565b60088201546001600160a01b031633036123125760088201805460ff60a81b1916600160a81b1790556009820180546003919060ff60a01b1916600160a01b836122c3565b604051639aa9c8b560e01b815260048101869052336024820152604401610e1b565b6008820154600160a01b900460ff16801561235a57506008820154600160a81b900460ff165b15610e905760098201805460ff60a01b1916600160a21b1790556040805186815290517f71a76872b00dbc7728a966e65795cf08a847d5a061e6f9a666baaf3d601931db9181900360200190a15050505050565b6000918252602082815260408084206001600160a01b0393909316845291905290205460ff1690565b606060028054610c6f90614763565b7f16ceee8289685dd2a02b9c8ae81d2df373176ce53519e6284e2a2950d6546ffa612410816132da565b600083815260196020526040902060056009820154600160a01b900460ff16600781111561244057612440614078565b148061246b575060066009820154600160a01b900460ff16600781111561246957612469614078565b145b6124cc5760405162461bcd60e51b815260206004820152602c60248201527f446567656e4465616c734552433732313a2073686f756c64206265206172626960448201526b74726167652073746174757360a01b6064820152608401610e1b565b6009810180546001600160a81b0319163360ff60a01b191617600760a01b1790556040805185815290517fea992c5d8822e09d110191b5e9ea82ee790c417e85079a54f12dc3169ddb2c719181900360200190a150505050565b610ecb3383836137e4565b6000610b46600080516020614a6e833981519152836123ae565b601c60205260009081526040902080546114e690614763565b6000818152601960205260408120600401546010548290620186a090611eca9084614802565b600080600080516020614a6e8339815191526125a5816132da565b6125bd600080516020614a6e833981519152866123ae565b806125cf57506001600160a01b038516155b6126275760405162461bcd60e51b8152602060048201526024808201527f446567656e4465616c734552433732313a206f626c69676565206e6f74206d6560448201526336b132b960e11b6064820152608401610e1b565b6001600160a01b03881660009081526018602052604090205460ff1661266b5760405163053a999d60e01b81526001600160a01b0389166004820152602401610e1b565b6126758888611869565b6007805493506000612686856147e9565b90915550600d5460405163a14ed6c360e01b8152600481018590526001600160a01b0386811660248301529091169063a14ed6c3906044016020604051808303816000875af11580156126dd573d6000803e3d6000fd5b505050506040513d601f19601f82011682018060405250810190612701919061494b565b915060006001600160a01b03861661271a576000612724565b61272487426147c0565b9050336127318186613744565b604080516101a0810182523381526001600160a01b0383811660208301529181018d90528b82166060820152608081018b905260a081018a905285821660c082015260e081018490529088166101008201526000610120820181905261014082018190526101608201819052610180820152600086815260196020908152604091829020835181546001600160a01b03199081166001600160a01b03928316178355928501516001830180549094169116179091559082015160028201906127f9908261488b565b5060608201516003820180546001600160a01b03199081166001600160a01b03938416179091556080840151600484015560a0840151600584015560c0840151600684018054831691841691909117905560e08401516007808501919091556101008501516008850180546101208801516101408901519387166001600160a81b031992831617600160a01b91151582021760ff60a81b1916600160a81b94151594909402939093179091556101608701516009870180549586169190961690811786556101808801519594909116179184908111156128db576128db614078565b021790555090505084601a6000878152602001908152602001600020819055507ffb3a2a86acb531f7080bf80a0afbcb0051677f04052acad4f59b13a0df6883eb858289878f8f8f8f604051612938989796959493929190614968565b60405180910390a1505050965096945050505050565b6129598484846111e0565b61131d84848484613883565b600081815260196020908152604080832081516101a08101835281546001600160a01b039081168252600183015416938101939093526002810180548594859485949193919290840191906129b990614763565b80601f01602080910402602001604051908101604052809291908181526020018280546129e590614763565b8015612a325780601f10612a0757610100808354040283529160200191612a32565b820191906000526020600020905b815481529060010190602001808311612a1557829003601f168201915b505050918352505060038201546001600160a01b039081166020830152600483015460408301526005830154606083015260068301548116608083015260078084015460a0840152600884015480831660c085015260ff600160a01b8083048216151560e0870152600160a81b90920481161515610100860152600986015493841661012086015261014090940193920490911690811115612ad657612ad6614078565b6007811115612ae757612ae7614078565b81525050905080608001519250620186a0600f5484612b069190614802565b612b109190614819565b9150612b1c82846147c0565b9350509193909250565b600080516020614a6e833981519152612b3e816132da565b600082815260196020526040902060018101546001600160a01b0316331480612b73575060088101546001600160a01b031633145b612bbf5760405162461bcd60e51b815260206004820152601e60248201527f446567656e4465616c734552433732313a206e6f7420656c696769626c6500006044820152606401610e1b565b60018101546001600160a01b03163303612bed5760098101805460ff60a01b1916600560a01b179055612c17565b60088101546001600160a01b03163303612c175760098101805460ff60a01b1916600360a11b1790555b604080518481523360208201527f2ecc15cf6b0b42f81beb6acccad34f8d29a012cd58c1e9a1684caf988069a2e591015b60405180910390a1505050565b6060612c6082613357565b506000828152601c602052604081208054612c7a90614763565b80601f0160208091040260200160405190810160405280929190818152602001828054612ca690614763565b8015612cf35780601f10612cc857610100808354040283529160200191612cf3565b820191906000526020600020905b815481529060010190602001808311612cd657829003601f168201915b505050505090508051600003610b465760088054612d1090614763565b80601f0160208091040260200160405190810160405280929190818152602001828054612d3c90614763565b8015612d895780601f10612d5e57610100808354040283529160200191612d89565b820191906000526020600020905b815481529060010190602001808311612d6c57829003601f168201915b5050505050915050919050565b50919050565b600082815260208190526040902060010154612db7816132da565b61131d8383613599565b600080516020614a4e833981519152612dd9816132da565b6008611466838261488b565b6000828152601960209081526040808320601b90925290912054612e4b5760405162461bcd60e51b815260206004820152601d60248201527f446567656e4465616c734552433732313a204e6f20646973636f756e740000006044820152606401610e1b565b60038101546001600160a01b031660008080612e6687611e7d565b91945092509050612e826001600160a01b038516333086613422565b612e8c8482613489565b60068501546001600160a01b0390811690612eaa9086168285613604565b60405162ac9fa960e81b81526001600160a01b0382169063ac9fa90090612ed5908a90600401614156565b600060405180830381600087803b158015612eef57600080fd5b505af1925050508015612f00575060015b612f1d576040516329f6e5a560e01b815260040160405180910390fd5b6000888152601b60205260408120556001860154612f45906001600160a01b0316338a613694565b5050505050505050565b805b6000828152601a60205260409020548114612f7b57506000818152601a6020526040902054612f51565b919050565b6001600160a01b03918216600090815260066020908152604080832093909416825291909152205460ff1690565b806000108015612fc05750620186a081105b61301c5760405162461bcd60e51b815260206004820152602760248201527f446567656e4465616c734552433732313a20646973636f756e74203e2031303060448201526625206f7220302560c81b6064820152608401610e1b565b6000828152601960205260409020336130348461189b565b6001600160a01b03161461308a5760405162461bcd60e51b815260206004820152601d60248201527f446567656e4465616c734552433732313a206e6f74206f626c69676f720000006044820152606401610e1b565b60006009820154600160a01b900460ff1660078111156130ac576130ac614078565b146130f95760405162461bcd60e51b815260206004820152601e60248201527f446567656e4465616c734552433732313a20616c7265616479207061696400006044820152606401610e1b565b6000838152601b602090815260409182902084905581518581529081018490527ffdca7821e3b53b9dbd7dba230c90fa4ccd6b70ef27f0db90fc9b54134da550799101612c48565b600082815260196020526040902060018101546001600160a01b0316338082036131a3576000858152601d602090815260408083206001600160a01b03808716855290835281842090851684529091529020805460ff19166001179055610e90565b6000858152601d602090815260408083206001600160a01b038087168552908352818420908516845290915290205460ff16156132be576006830154604051634dc19de160e01b81526001600160a01b03909116908190634dc19de19061320e908890600401614156565b600060405180830381600087803b15801561322857600080fd5b505af1925050508015613239575060015b61326e5760068401546040516372ff339b60e01b8152600481018890526001600160a01b039091166024820152604401610e1b565b506001830180546001600160a01b031916331790556000858152601d602090815260408083206001600160a01b03868116855290835281842090851684529091529020805460ff19169055610e90565b60405163102ef60360e31b815260048101869052602401610e1b565b6132e481336139a5565b50565b60006001600160e01b031982166380ac58cd60e01b1480610b3757506001600160e01b03198216635b5e139f60e01b1480610b465750610b46825b60006001600160e01b03198216637965db0b60e01b1480610b4657506301ffc9a760e01b6001600160e01b0319831614610b46565b6000818152600360205260408120546001600160a01b031680610b4657604051637e27328960e01b815260048101849052602401610e1b565b61146683838360016139de565b6001600160a01b0382166133c757604051633250574960e11b815260006004820152602401610e1b565b60006133d4838333613ae4565b9050836001600160a01b0316816001600160a01b03161461131d576040516364283d7b60e01b81526001600160a01b0380861660048301526024820184905282166044820152606401610e1b565b6040516001600160a01b03848116602483015283811660448301526064820183905261131d9186918216906323b872dd906084015b604051602081830303815290604052915060e01b6020820180516001600160e01b038381831617835250505050613bdf565b60006016546014548361349c9190614802565b6134a69190614819565b90506000601654601554846134bb9190614802565b6134c59190614819565b905081156134e757600a546134e7906001600160a01b03868116911684613c42565b801561131d5760095461131d906001600160a01b03868116911683613c42565b600061351383836123ae565b613591576000838152602081815260408083206001600160a01b03861684529091529020805460ff191660011790556135493390565b6001600160a01b0316826001600160a01b0316847f2f8788117e7eff1d82e926ec794901d17c78024a50270940304540a733656f0d60405160405180910390a4506001610b46565b506000610b46565b60006135a583836123ae565b15613591576000838152602081815260408083206001600160a01b0386168085529252808320805460ff1916905551339286917ff6391f5c32d9c69d2a47ea670b442974b53935d1edc7fd64eb21e047a839171b9190a4506001610b46565b604080516001600160a01b038416602482015260448082018490528251808303909101815260649091019091526020810180516001600160e01b031663095ea7b360e01b1790526136558482613c73565b61131d576040516001600160a01b0384811660248301526000604483015261368a91869182169063095ea7b390606401613457565b61131d8482613bdf565b6001600160a01b0382166136be57604051633250574960e11b815260006004820152602401610e1b565b60006136cc83836000613ae4565b90506001600160a01b0381166136f857604051637e27328960e01b815260048101839052602401610e1b565b836001600160a01b0316816001600160a01b03161461131d576040516364283d7b60e01b81526001600160a01b0380861660048301526024820184905282166044820152606401610e1b565b6001600160a01b03821661376e57604051633250574960e11b815260006004820152602401610e1b565b600061377c83836000613ae4565b90506001600160a01b03811615611466576040516339e3563760e11b815260006004820152602401610e1b565b60006137b86000836000613ae4565b90506001600160a01b038116610ecb57604051637e27328960e01b815260048101839052602401610e1b565b6001600160a01b03821661381657604051630b61174360e31b81526001600160a01b0383166004820152602401610e1b565b6001600160a01b03838116600081815260066020908152604080832094871680845294825291829020805460ff191686151590811790915591519182527f17307eab39ab6107e8899845ad3d59bd9653f200f220920489ca2b5937696c31910160405180910390a3505050565b6001600160a01b0383163b1561131d57604051630a85bd0160e11b81526001600160a01b0384169063150b7a02906138c59033908890879087906004016149c4565b6020604051808303816000875af1925050508015613900575060408051601f3d908101601f191682019092526138fd918101906149f7565b60015b613969573d80801561392e576040519150601f19603f3d011682016040523d82523d6000602084013e613933565b606091505b50805160000361396157604051633250574960e11b81526001600160a01b0385166004820152602401610e1b565b805181602001fd5b6001600160e01b03198116630a85bd0160e11b14610e9057604051633250574960e11b81526001600160a01b0385166004820152602401610e1b565b6139af82826123ae565b610ecb5760405163e2517d3f60e01b81526001600160a01b038216600482015260248101839052604401610e1b565b80806139f257506001600160a01b03821615155b15613ab4576000613a0284613357565b90506001600160a01b03831615801590613a2e5750826001600160a01b0316816001600160a01b031614155b8015613a415750613a3f8184612f80565b155b15613a6a5760405163a9fbf51f60e01b81526001600160a01b0384166004820152602401610e1b565b8115613ab25783856001600160a01b0316826001600160a01b03167f8c5be1e5ebec7d5bd14f71427d1e84f3dd0314c0f7b2291e5b200ac8c7c3b92560405160405180910390a45b505b5050600090815260056020526040902080546001600160a01b0319166001600160a01b0392909216919091179055565b6000828152600360205260408120546001600160a01b0390811690831615613b1157613b11818486613d1b565b6001600160a01b03811615613b4f57613b2e6000856000806139de565b6001600160a01b038116600090815260046020526040902080546000190190555b6001600160a01b03851615613b7e576001600160a01b0385166000908152600460205260409020805460010190555b60008481526003602052604080822080546001600160a01b0319166001600160a01b0389811691821790925591518793918516917fddf252ad1be2c89b69c2b068fc378daa952ba7f163c4a11628f55a4df523b3ef91a490505b9392505050565b6000613bf46001600160a01b03841683613d7f565b90508051600014158015613c19575080806020019051810190613c179190614a14565b155b1561146657604051635274afe760e01b81526001600160a01b0384166004820152602401610e1b565b6040516001600160a01b0383811660248301526044820183905261146691859182169063a9059cbb90606401613457565b6000806000846001600160a01b031684604051613c909190614a31565b6000604051808303816000865af19150503d8060008114613ccd576040519150601f19603f3d011682016040523d82523d6000602084013e613cd2565b606091505b5091509150818015613cfc575080511580613cfc575080806020019051810190613cfc9190614a14565b8015613d1257506000856001600160a01b03163b115b95945050505050565b613d26838383613d8d565b611466576001600160a01b038316613d5457604051637e27328960e01b815260048101829052602401610e1b565b60405163177e802f60e01b81526001600160a01b038316600482015260248101829052604401610e1b565b6060613bd883836000613df3565b60006001600160a01b03831615801590613deb5750826001600160a01b0316846001600160a01b03161480613dc75750613dc78484612f80565b80613deb57506000828152600560205260409020546001600160a01b038481169116145b949350505050565b606081471015613e185760405163cd78605960e01b8152306004820152602401610e1b565b600080856001600160a01b03168486604051613e349190614a31565b60006040518083038185875af1925050503d8060008114613e71576040519150601f19603f3d011682016040523d82523d6000602084013e613e76565b606091505b5091509150613e86868383613e90565b9695505050505050565b606082613ea557613ea082613eec565b613bd8565b8151158015613ebc57506001600160a01b0384163b155b15613ee557604051639996b31560e01b81526001600160a01b0385166004820152602401610e1b565b5080613bd8565b805115613efc5780518082602001fd5b604051630a12f52160e11b815260040160405180910390fd5b604080516101a08101825260008082526020820181905260609282018390529181018290526080810182905260a0810182905260c0810182905260e0810182905261010081018290526101208101829052610140810182905261016081018290529061018082015290565b6001600160a01b03811681146132e457600080fd5b80151581146132e457600080fd5b60008060408385031215613fb657600080fd5b8235613fc181613f80565b91506020830135613fd181613f95565b809150509250929050565b6001600160e01b0319811681146132e457600080fd5b60006020828403121561400457600080fd5b8135613bd881613fdc565b60006020828403121561402157600080fd5b5035919050565b60005b8381101561404357818101518382015260200161402b565b50506000910152565b60008151808452614064816020860160208601614028565b601f01601f19169290920160200192915050565b634e487b7160e01b600052602160045260246000fd5b600881106140ac57634e487b7160e01b600052602160045260246000fd5b9052565b6001600160a01b038e811682528d1660208201526101a0604082018190526000906140dd9083018e61404c565b6001600160a01b038d81166060850152608084018d905260a084018c90528a811660c085015260e084018a9052881661010084015286151561012084015290508415156101408301526001600160a01b03841661016083015261414461018083018461408e565b9e9d5050505050505050505050505050565b602081526000613bd8602083018461404c565b634e487b7160e01b600052604160045260246000fd5b604051601f8201601f1916810167ffffffffffffffff811182821017156141a8576141a8614169565b604052919050565b600082601f8301126141c157600080fd5b813567ffffffffffffffff8111156141db576141db614169565b6141ee601f8201601f191660200161417f565b81815284602083860101111561420357600080fd5b816020850160208301376000918101602001919091529392505050565b6000806040838503121561423357600080fd5b82359150602083013567ffffffffffffffff81111561425157600080fd5b61425d858286016141b0565b9150509250929050565b6000806040838503121561427a57600080fd5b823561428581613f80565b946020939093013593505050565b600080604083850312156142a657600080fd5b50508035926020909101359150565b80516001600160a01b0316825260006101a060208301516142e160208601826001600160a01b03169052565b5060408301518160408601526142f98286018261404c565b915050606083015161431660608601826001600160a01b03169052565b506080830151608085015260a083015160a085015260c083015161434560c08601826001600160a01b03169052565b5060e083015160e08501526101008084015161436b828701826001600160a01b03169052565b50506101208381015115159085015261014080840151151590850152610160808401516001600160a01b031690850152610180808401516143ae8287018261408e565b5090949350505050565b600060208083016020845280855180835260408601915060408160051b87010192506020870160005b8281101561440f57603f198886030184526143fd8583516142b5565b945092850192908501906001016143e1565b5092979650505050505050565b60006020828403121561442e57600080fd5b8135613bd881613f80565b60008060006060848603121561444e57600080fd5b833561445981613f80565b9250602084013561446981613f80565b929592945050506040919091013590565b6000806040838503121561448d57600080fd5b823591506020830135613fd181613f80565b600080604083850312156144b257600080fd5b82356144bd81613f80565b9150602083013567ffffffffffffffff81111561425157600080fd5b600080604083850312156144ec57600080fd5b8235915060208084013567ffffffffffffffff8082111561450c57600080fd5b818601915086601f83011261452057600080fd5b81358181111561453257614532614169565b8060051b915061454384830161417f565b818152918301840191848101908984111561455d57600080fd5b938501935b8385101561457b57843582529385019390850190614562565b8096505050505050509250929050565b60006020828403121561459d57600080fd5b813567ffffffffffffffff8111156145b457600080fd5b613deb848285016141b0565b602081526000613bd860208301846142b5565b600080604083850312156145e657600080fd5b82359150602083013560ff81168114613fd157600080fd5b60008060006060848603121561461357600080fd5b83359250602084013561462581613f80565b9150604084013561463581613f80565b809150509250925092565b60008060008060008060c0878903121561465957600080fd5b863567ffffffffffffffff81111561467057600080fd5b61467c89828a016141b0565b965050602087013561468d81613f80565b9450604087013593506060870135925060808701356146ab81613f80565b915060a08701356146bb81613f80565b809150509295509295509295565b600080600080608085870312156146df57600080fd5b84356146ea81613f80565b935060208501356146fa81613f80565b925060408501359150606085013567ffffffffffffffff81111561471d57600080fd5b614729878288016141b0565b91505092959194509250565b6000806040838503121561474857600080fd5b823561475381613f80565b91506020830135613fd181613f80565b600181811c9082168061477757607f821691505b602082108103612d9657634e487b7160e01b600052602260045260246000fd5b634e487b7160e01b600052601160045260246000fd5b81810381811115610b4657610b46614797565b80820180821115610b4657610b46614797565b634e487b7160e01b600052603260045260246000fd5b6000600182016147fb576147fb614797565b5060010190565b8082028115828204841417610b4657610b46614797565b60008261483657634e487b7160e01b600052601260045260246000fd5b500490565b601f821115611466576000816000526020600020601f850160051c810160208610156148645750805b601f850160051c820191505b8181101561488357828155600101614870565b505050505050565b815167ffffffffffffffff8111156148a5576148a5614169565b6148b9816148b38454614763565b8461483b565b602080601f8311600181146148ee57600084156148d65750858301515b600019600386901b1c1916600185901b178555614883565b600085815260208120601f198616915b8281101561491d578886015182559484019460019091019084016148fe565b508582101561493b5787850151600019600388901b60f8161c191681555b5050505050600190811b01905550565b60006020828403121561495d57600080fd5b8151613bd881613f80565b8881526001600160a01b03888116602083015287811660408301528681166060830152610100608083018190526000916149a48483018961404c565b961660a0840152505060c081019290925260e09091015295945050505050565b6001600160a01b0385811682528416602082015260408101839052608060608201819052600090613e869083018461404c565b600060208284031215614a0957600080fd5b8151613bd881613fdc565b600060208284031215614a2657600080fd5b8151613bd881613f95565b60008251614a43818460208701614028565b919091019291505056feadd65a0122239b37b5707b5b2d1891382de4f015e82d2c58794daf5d9179e759829b824e2329e205435d941c9f13baf578548505283d29261236d8e6596d4636a2646970667358221220dc05b9df189d8fbf194c44509c9954c1252be58b72aa83c9e1a58020303debc164736f6c63430008180033add65a0122239b37b5707b5b2d1891382de4f015e82d2c58794daf5d9179e759",
  "linkReferences": {},
  "deployedLinkReferences": {}
}